{
  "contractName": "VirtualPowerPlant",
  "abi": [
    {
      "inputs": [],
      "payable": false,
      "stateMutability": "nonpayable",
      "type": "constructor"
    },
    {
      "anonymous": false,
      "inputs": [
        {
          "indexed": false,
          "internalType": "bytes32",
          "name": "hash",
          "type": "bytes32"
        }
      ],
      "name": "bidCreated",
      "type": "event"
    },
    {
      "constant": true,
      "inputs": [
        {
          "internalType": "bytes32",
          "name": "",
          "type": "bytes32"
        }
      ],
      "name": "bidMapping",
      "outputs": [
        {
          "internalType": "address",
          "name": "supplier",
          "type": "address"
        },
        {
          "internalType": "address",
          "name": "consumer",
          "type": "address"
        },
        {
          "internalType": "uint256",
          "name": "price",
          "type": "uint256"
        },
        {
          "internalType": "uint256",
          "name": "state",
          "type": "uint256"
        },
        {
          "internalType": "uint256",
          "name": "duration",
          "type": "uint256"
        },
        {
          "internalType": "uint256",
          "name": "startTime",
          "type": "uint256"
        }
      ],
      "payable": false,
      "stateMutability": "view",
      "type": "function"
    },
    {
      "constant": true,
      "inputs": [
        {
          "internalType": "uint256",
          "name": "",
          "type": "uint256"
        }
      ],
      "name": "bids",
      "outputs": [
        {
          "internalType": "bytes32",
          "name": "",
          "type": "bytes32"
        }
      ],
      "payable": false,
      "stateMutability": "view",
      "type": "function"
    },
    {
      "constant": true,
      "inputs": [
        {
          "internalType": "address",
          "name": "",
          "type": "address"
        }
      ],
      "name": "consumerMapping",
      "outputs": [
        {
          "internalType": "address",
          "name": "addr",
          "type": "address"
        },
        {
          "internalType": "uint256",
          "name": "demand",
          "type": "uint256"
        }
      ],
      "payable": false,
      "stateMutability": "view",
      "type": "function"
    },
    {
      "constant": true,
      "inputs": [
        {
          "internalType": "uint256",
          "name": "",
          "type": "uint256"
        }
      ],
      "name": "consumers",
      "outputs": [
        {
          "internalType": "address",
          "name": "",
          "type": "address"
        }
      ],
      "payable": false,
      "stateMutability": "view",
      "type": "function"
    },
    {
      "constant": true,
      "inputs": [
        {
          "internalType": "address",
          "name": "",
          "type": "address"
        }
      ],
      "name": "supplierMapping",
      "outputs": [
        {
          "internalType": "address",
          "name": "addr",
          "type": "address"
        },
        {
          "internalType": "uint256",
          "name": "kwhPrice",
          "type": "uint256"
        },
        {
          "internalType": "uint256",
          "name": "kwhAmount",
          "type": "uint256"
        },
        {
          "internalType": "string",
          "name": "sourceType",
          "type": "string"
        }
      ],
      "payable": false,
      "stateMutability": "view",
      "type": "function"
    },
    {
      "constant": true,
      "inputs": [
        {
          "internalType": "uint256",
          "name": "",
          "type": "uint256"
        }
      ],
      "name": "suppliers",
      "outputs": [
        {
          "internalType": "address",
          "name": "",
          "type": "address"
        }
      ],
      "payable": false,
      "stateMutability": "view",
      "type": "function"
    },
    {
      "constant": false,
      "inputs": [
        {
          "internalType": "uint256",
          "name": "kwhPrice",
          "type": "uint256"
        },
        {
          "internalType": "uint256",
          "name": "kwhAmount",
          "type": "uint256"
        },
        {
          "internalType": "string",
          "name": "sourceType",
          "type": "string"
        }
      ],
      "name": "createSupplier",
      "outputs": [],
      "payable": false,
      "stateMutability": "nonpayable",
      "type": "function"
    },
    {
      "constant": false,
      "inputs": [
        {
          "internalType": "uint256",
          "name": "demand",
          "type": "uint256"
        }
      ],
      "name": "createConsumer",
      "outputs": [],
      "payable": false,
      "stateMutability": "nonpayable",
      "type": "function"
    },
    {
      "constant": false,
      "inputs": [
        {
          "internalType": "address",
          "name": "addr",
          "type": "address"
        },
        {
          "internalType": "uint256",
          "name": "price",
          "type": "uint256"
        },
        {
          "internalType": "uint256",
          "name": "duration",
          "type": "uint256"
        }
      ],
      "name": "placeBid",
      "outputs": [],
      "payable": false,
      "stateMutability": "nonpayable",
      "type": "function"
    },
    {
      "constant": false,
      "inputs": [
        {
          "internalType": "bytes32",
          "name": "bidID",
          "type": "bytes32"
        }
      ],
      "name": "acceptBid",
      "outputs": [],
      "payable": false,
      "stateMutability": "nonpayable",
      "type": "function"
    },
    {
      "constant": false,
      "inputs": [
        {
          "internalType": "bytes32",
          "name": "bidID",
          "type": "bytes32"
        }
      ],
      "name": "denyBid",
      "outputs": [],
      "payable": false,
      "stateMutability": "nonpayable",
      "type": "function"
    },
    {
      "constant": false,
      "inputs": [],
      "name": "clear",
      "outputs": [],
      "payable": false,
      "stateMutability": "nonpayable",
      "type": "function"
    },
    {
      "constant": true,
      "inputs": [],
      "name": "getSuppliers",
      "outputs": [
        {
          "internalType": "address[]",
          "name": "",
          "type": "address[]"
        }
      ],
      "payable": false,
      "stateMutability": "view",
      "type": "function"
    },
    {
      "constant": true,
      "inputs": [
        {
          "internalType": "address",
          "name": "supplier",
          "type": "address"
        }
      ],
      "name": "getSupplier",
      "outputs": [
        {
          "internalType": "address",
          "name": "",
          "type": "address"
        },
        {
          "internalType": "uint256",
          "name": "",
          "type": "uint256"
        },
        {
          "internalType": "uint256",
          "name": "",
          "type": "uint256"
        },
        {
          "internalType": "string",
          "name": "",
          "type": "string"
        }
      ],
      "payable": false,
      "stateMutability": "view",
      "type": "function"
    },
    {
      "constant": true,
      "inputs": [],
      "name": "getConsumers",
      "outputs": [
        {
          "internalType": "address[]",
          "name": "",
          "type": "address[]"
        }
      ],
      "payable": false,
      "stateMutability": "view",
      "type": "function"
    },
    {
      "constant": true,
      "inputs": [],
      "name": "getBids",
      "outputs": [
        {
          "internalType": "bytes32[]",
          "name": "",
          "type": "bytes32[]"
        }
      ],
      "payable": false,
      "stateMutability": "view",
      "type": "function"
    }
  ],
  "bytecode": "0x608060405234801561001057600080fd5b506115db806100206000396000f3fe608060405234801561001057600080fd5b50600436106101005760003560e01c80634651ed3d11610097578063b81c78ec11610066578063b81c78ec14610646578063c55dc863146106a5578063cea23121146106d3578063fe7009f21461074157610100565b80634651ed3d146104d157806352efea6e1461053f578063547253dc14610549578063b53a98181461057757610100565b806331e44a54116100d357806331e44a54146103a35780633b729b86146103d157806343516832146104305780634423c5f11461048f57610100565b806304717aca146101055780630aeae3e81461015d5780632140dbd11461025b5780632d8a397a14610318575b600080fd5b61015b6004803603606081101561011b57600080fd5b81019080803573ffffffffffffffffffffffffffffffffffffffff169060200190929190803590602001909291908035906020019092919050505061083f565b005b61019f6004803603602081101561017357600080fd5b81019080803573ffffffffffffffffffffffffffffffffffffffff169060200190929190505050610a73565b604051808573ffffffffffffffffffffffffffffffffffffffff1673ffffffffffffffffffffffffffffffffffffffff16815260200184815260200183815260200180602001828103825283818151815260200191508051906020019080838360005b8381101561021d578082015181840152602081019050610202565b50505050905090810190601f16801561024a5780820380516001836020036101000a031916815260200191505b509550505050505060405180910390f35b6102876004803603602081101561027157600080fd5b8101908080359060200190929190505050610b5b565b604051808773ffffffffffffffffffffffffffffffffffffffff1673ffffffffffffffffffffffffffffffffffffffff1681526020018673ffffffffffffffffffffffffffffffffffffffff1673ffffffffffffffffffffffffffffffffffffffff168152602001858152602001848152602001838152602001828152602001965050505050505060405180910390f35b61035a6004803603602081101561032e57600080fd5b81019080803573ffffffffffffffffffffffffffffffffffffffff169060200190929190505050610bd7565b604051808373ffffffffffffffffffffffffffffffffffffffff1673ffffffffffffffffffffffffffffffffffffffff1681526020018281526020019250505060405180910390f35b6103cf600480360360208110156103b957600080fd5b8101908080359060200190929190505050610c1b565b005b6103d9610d10565b6040518080602001828103825283818151815260200191508051906020019060200280838360005b8381101561041c578082015181840152602081019050610401565b505050509050019250505060405180910390f35b610438610d9e565b6040518080602001828103825283818151815260200191508051906020019060200280838360005b8381101561047b578082015181840152602081019050610460565b505050509050019250505060405180910390f35b6104bb600480360360208110156104a557600080fd5b8101908080359060200190929190505050610e2c565b6040518082815260200191505060405180910390f35b6104fd600480360360208110156104e757600080fd5b8101908080359060200190929190505050610e4d565b604051808273ffffffffffffffffffffffffffffffffffffffff1673ffffffffffffffffffffffffffffffffffffffff16815260200191505060405180910390f35b610547610e89565b005b6105756004803603602081101561055f57600080fd5b8101908080359060200190929190505050610eb5565b005b6106446004803603606081101561058d57600080fd5b810190808035906020019092919080359060200190929190803590602001906401000000008111156105be57600080fd5b8201836020820111156105d057600080fd5b803590602001918460018302840111640100000000831117156105f257600080fd5b91908080601f016020809104026020016040519081016040528093929190818152602001838380828437600081840152601f19601f820116905080830192505050505050509192919290505050610fdc565b005b61064e611137565b6040518080602001828103825283818151815260200191508051906020019060200280838360005b83811015610691578082015181840152602081019050610676565b505050509050019250505060405180910390f35b6106d1600480360360208110156106bb57600080fd5b810190808035906020019092919050505061118f565b005b6106ff600480360360208110156106e957600080fd5b8101908080359060200190929190505050611285565b604051808273ffffffffffffffffffffffffffffffffffffffff1673ffffffffffffffffffffffffffffffffffffffff16815260200191505060405180910390f35b6107836004803603602081101561075757600080fd5b81019080803573ffffffffffffffffffffffffffffffffffffffff1690602001909291905050506112c1565b604051808573ffffffffffffffffffffffffffffffffffffffff1673ffffffffffffffffffffffffffffffffffffffff16815260200184815260200183815260200180602001828103825283818151815260200191508051906020019080838360005b838110156108015780820151818401526020810190506107e6565b50505050905090810190601f16801561082e5780820380516001836020036101000a031916815260200191505b509550505050505060405180910390f35b60008333846001430340604051602001808573ffffffffffffffffffffffffffffffffffffffff1673ffffffffffffffffffffffffffffffffffffffff1660601b81526014018473ffffffffffffffffffffffffffffffffffffffff1673ffffffffffffffffffffffffffffffffffffffff1660601b81526014018381526020018281526020019450505050506040516020818303038152906040528051906020012090506040518060c001604052808573ffffffffffffffffffffffffffffffffffffffff1681526020013373ffffffffffffffffffffffffffffffffffffffff16815260200184815260200160008152602001838152602001428152506002600083815260200190815260200160002060008201518160000160006101000a81548173ffffffffffffffffffffffffffffffffffffffff021916908373ffffffffffffffffffffffffffffffffffffffff16021790555060208201518160010160006101000a81548173ffffffffffffffffffffffffffffffffffffffff021916908373ffffffffffffffffffffffffffffffffffffffff16021790555060408201518160020155606082015181600301556080820151816004015560a0820151816005015590505060058190806001815401808255809150509060018203906000526020600020016000909192909190915055507f4b059ad308855b16e0cd3dfef68eb3d7ad4f0c83e2c7976cc9b7491fb917ad92816040518082815260200191505060405180910390a150505050565b60006020528060005260406000206000915090508060000160009054906101000a900473ffffffffffffffffffffffffffffffffffffffff1690806001015490806002015490806003018054600181600116156101000203166002900480601f016020809104026020016040519081016040528092919081815260200182805460018160011615610100020316600290048015610b515780601f10610b2657610100808354040283529160200191610b51565b820191906000526020600020905b815481529060010190602001808311610b3457829003601f168201915b5050505050905084565b60026020528060005260406000206000915090508060000160009054906101000a900473ffffffffffffffffffffffffffffffffffffffff16908060010160009054906101000a900473ffffffffffffffffffffffffffffffffffffffff16908060020154908060030154908060040154908060050154905086565b60016020528060005260406000206000915090508060000160009054906101000a900473ffffffffffffffffffffffffffffffffffffffff16908060010154905082565b6002600082815260200190815260200160002060000160009054906101000a900473ffffffffffffffffffffffffffffffffffffffff1673ffffffffffffffffffffffffffffffffffffffff163373ffffffffffffffffffffffffffffffffffffffff161480610cec57506002600082815260200190815260200160002060010160009054906101000a900473ffffffffffffffffffffffffffffffffffffffff1673ffffffffffffffffffffffffffffffffffffffff163373ffffffffffffffffffffffffffffffffffffffff16145b610cf257fe5b60028060008381526020019081526020016000206003018190555050565b60606004805480602002602001604051908101604052809291908181526020018280548015610d9457602002820191906000526020600020905b8160009054906101000a900473ffffffffffffffffffffffffffffffffffffffff1673ffffffffffffffffffffffffffffffffffffffff1681526020019060010190808311610d4a575b5050505050905090565b60606003805480602002602001604051908101604052809291908181526020018280548015610e2257602002820191906000526020600020905b8160009054906101000a900473ffffffffffffffffffffffffffffffffffffffff1673ffffffffffffffffffffffffffffffffffffffff1681526020019060010190808311610dd8575b5050505050905090565b60058181548110610e3957fe5b906000526020600020016000915090505481565b60048181548110610e5a57fe5b906000526020600020016000915054906101000a900473ffffffffffffffffffffffffffffffffffffffff1681565b60036000610e97919061149a565b60046000610ea5919061149a565b60056000610eb391906114bb565b565b60405180604001604052803373ffffffffffffffffffffffffffffffffffffffff16815260200182815250600160003373ffffffffffffffffffffffffffffffffffffffff1673ffffffffffffffffffffffffffffffffffffffff16815260200190815260200160002060008201518160000160006101000a81548173ffffffffffffffffffffffffffffffffffffffff021916908373ffffffffffffffffffffffffffffffffffffffff1602179055506020820151816001015590505060043390806001815401808255809150509060018203906000526020600020016000909192909190916101000a81548173ffffffffffffffffffffffffffffffffffffffff021916908373ffffffffffffffffffffffffffffffffffffffff1602179055505050565b60405180608001604052803373ffffffffffffffffffffffffffffffffffffffff168152602001848152602001838152602001828152506000803373ffffffffffffffffffffffffffffffffffffffff1673ffffffffffffffffffffffffffffffffffffffff16815260200190815260200160002060008201518160000160006101000a81548173ffffffffffffffffffffffffffffffffffffffff021916908373ffffffffffffffffffffffffffffffffffffffff160217905550602082015181600101556040820151816002015560608201518160030190805190602001906110c89291906114dc565b5090505060033390806001815401808255809150509060018203906000526020600020016000909192909190916101000a81548173ffffffffffffffffffffffffffffffffffffffff021916908373ffffffffffffffffffffffffffffffffffffffff16021790555050505050565b6060600580548060200260200160405190810160405280929190818152602001828054801561118557602002820191906000526020600020905b815481526020019060010190808311611171575b5050505050905090565b6002600082815260200190815260200160002060000160009054906101000a900473ffffffffffffffffffffffffffffffffffffffff1673ffffffffffffffffffffffffffffffffffffffff163373ffffffffffffffffffffffffffffffffffffffff16148061126057506002600082815260200190815260200160002060010160009054906101000a900473ffffffffffffffffffffffffffffffffffffffff1673ffffffffffffffffffffffffffffffffffffffff163373ffffffffffffffffffffffffffffffffffffffff16145b61126657fe5b6001600260008381526020019081526020016000206003018190555050565b6003818154811061129257fe5b906000526020600020016000915054906101000a900473ffffffffffffffffffffffffffffffffffffffff1681565b600080600060606000808673ffffffffffffffffffffffffffffffffffffffff1673ffffffffffffffffffffffffffffffffffffffff16815260200190815260200160002060000160009054906101000a900473ffffffffffffffffffffffffffffffffffffffff166000808773ffffffffffffffffffffffffffffffffffffffff1673ffffffffffffffffffffffffffffffffffffffff168152602001908152602001600020600201546000808873ffffffffffffffffffffffffffffffffffffffff1673ffffffffffffffffffffffffffffffffffffffff168152602001908152602001600020600101546000808973ffffffffffffffffffffffffffffffffffffffff1673ffffffffffffffffffffffffffffffffffffffff168152602001908152602001600020600301808054600181600116156101000203166002900480601f0160208091040260200160405190810160405280929190818152602001828054600181600116156101000203166002900480156114845780601f1061145957610100808354040283529160200191611484565b820191906000526020600020905b81548152906001019060200180831161146757829003601f168201915b5050505050905093509350935093509193509193565b50805460008255906000526020600020908101906114b8919061155c565b50565b50805460008255906000526020600020908101906114d99190611581565b50565b828054600181600116156101000203166002900490600052602060002090601f016020900481019282601f1061151d57805160ff191683800117855561154b565b8280016001018555821561154b579182015b8281111561154a57825182559160200191906001019061152f565b5b509050611558919061155c565b5090565b61157e91905b8082111561157a576000816000905550600101611562565b5090565b90565b6115a391905b8082111561159f576000816000905550600101611587565b5090565b9056fea265627a7a723158203121859d23679cb8f9c2de64accbc60185a440fd4e4adfc8a7ba0a35ffda224b64736f6c634300050c0032",
  "source": "pragma solidity >= 0.5.0 < 0.7.0;\n\ncontract VirtualPowerPlant {\n\n  event bidCreated(bytes32 hash);\n\n  struct Supplier {\n    address addr;\n    uint kwhPrice;\n    uint kwhAmount;\n    string sourceType;\n  }\n\n  struct Consumer {\n    address addr;\n    uint demand;\n  }\n\n  struct Bid {\n    address supplier;\n    address consumer;\n    uint price;\n    uint state;\n    uint duration;\n    uint startTime;\n  }\n\n//  mapping (bytes32 => Bid) public bidMapping;\n  mapping (address => Supplier) public supplierMapping;\n  mapping (address => Consumer) public consumerMapping;\n  mapping (bytes32 => Bid) public bidMapping;\n\n  address[] public suppliers;\n  address[] public consumers;\n  bytes32[] public bids;\n\n  constructor() public {\n  }\n\n  function createSupplier(uint kwhPrice, uint kwhAmount, string memory sourceType ) public {\n    supplierMapping[msg.sender] =  Supplier(msg.sender, kwhPrice, kwhAmount, sourceType);\n    suppliers.push(msg.sender);\n  }\n\n  function createConsumer(uint demand) public {\n    consumerMapping[msg.sender] = Consumer(msg.sender, demand);\n    consumers.push(msg.sender);\n  }\n\n  function placeBid(address addr, uint price, uint duration) public {\n    bytes32 hash = keccak256(abi.encodePacked(addr,msg.sender,price,blockhash(block.number - 1)));\n    bidMapping[hash] = Bid(addr,msg.sender,price,0, duration, now);\n    bids.push(hash);\n    emit bidCreated(hash);\n  }\n\n  function acceptBid(bytes32 bidID) public {\n    assert(msg.sender == bidMapping[bidID].supplier || msg.sender == bidMapping[bidID].consumer);\n    bidMapping[bidID].state = 1;\n  }\n\n  function denyBid(bytes32 bidID) public {\n    assert( msg.sender == bidMapping[bidID].supplier || msg.sender == bidMapping[bidID].consumer);\n    bidMapping[bidID].state = 2;\n  }\n\n  function clear() public {\n    delete suppliers;\n    delete consumers;\n    delete bids;\n  }\n\n  function getSuppliers() public view returns (address[] memory) {\n    return suppliers;\n  }\n  function getSupplier(address supplier) public view returns (address, uint, uint, string memory){\n    return (supplierMapping[supplier].addr,supplierMapping[supplier].kwhAmount,supplierMapping[supplier].kwhPrice,supplierMapping[supplier].sourceType);\n  }\n  function getConsumers() public view returns (address[] memory) {\n    return consumers;\n  }\n  function getBids() public view returns (bytes32[] memory) {\n    return bids;\n  }\n\n\n\n}\n",
  "sourcePath": "/home/wesleyfinck/Documents/Senior_Design/sol-virtual-power-plant/contracts/VirtualPowerPlant.sol",
  "compiler": {
    "name": "solc",
    "version": "0.5.12+commit.7709ece9.Emscripten.clang"
  },
  "schemaVersion": "3.0.19",
  "updatedAt": "2020-04-01T21:31:57.107Z",
  "networkType": "ethereum",
  "devdoc": {
    "methods": {}
  },
  "userdoc": {
    "methods": {}
  }
}